:0400000010EF00F00D
:10002000C26A0F0EC16E070EB46EFF0ED36E030EC2
:10003000926E806A936A816A006AF29411D0F926FE
:100040003F0C060C5B0C4F0C660C6D0C7D0C070C0A
:100050007F0C6F0C770C7C0C390C5E0C790C710CDE
:100060008050016E030B0008D8A439EF00F051EF67
:1000700000F08050030B0108D8A441EF00F077EFA7
:1000800000F08050030B0208D8A449EF00F08AEF7B
:1000900000F08050030B0308D8A430EF00F064EFA9
:1000A00000F01E0E006E00501FEC00F0026E02C049
:1000B00081FF9AEC00F095EC00F00050D8A401D03C
:1000C000CFD700060006EFD7006A00501FEC00F003
:1000D000026E02C081FF9AEC00F095EC00F0005037
:1000E0000E08D8A401D0BCD7002A002AEED7120EE1
:1000F000006E00501FEC00F0026E02C081FF9AEC0F
:1001000000F095EC00F00050D8A4DBD7A9D700068A
:100110000006EFD70C0E006E00501FEC00F0026ED0
:1001200002C081FF9AEC00F09BD78050016230EF53
:1001300000F01200850ED76EEE0ED66E950ED56EBF
:08014000F2A4FED7F2941200B4
:020000040030CA
:0400000020083E1E78
:020005008181F7
:060008000F800FA00F4065
:00000001FF
