:0400000010EF00F00D
:10002000C26A0F0EC16E070EB46EFF0ED36E926AD7
:10003000806A936A816A9480006A016A0BD0F9260B
:100040003F0C060C5B0C4F0C660C6D0C7D0C070C0A
:100050007F0C6F0C006A016A00501FEC00F0816E8B
:1000600001501FEC00F0806E49EC00F0120E0062AF
:100070000DD0120E016203D0006A016AEDD7120E94
:10008000006204D0006A012A012AE6D7002A002A69
:10009000E3D782A0FED754EC00F082A0FAD736EC6A
:1000A00000F082A0FED7F5D7280E026EF20E036E86
:1000B0000000000000000000000000000000000040
:1000C00000000000000000000000032EF1D7022E07
:0400D000EDD7120056
:020000040030CA
:0400000020083E1E78
:020005008181F7
:060008000F800FA00F4065
:00000001FF
