:0400000010EF00F00D
:10002000C26A0F0EC16E070EB46EFF0ED36EFF0EC6
:10003000926E806A936A816A936A816A9480826A06
:1000400080B04EEF00F025EF00F080A24EEF00F000
:100050002AEF00F080B44EEF00F02FEF00F080A602
:100060004EEF00F034EF00F080B84EEF00F039EFC3
:1000700000F080AA4EEF00F03EEF00F080BC4EEFA3
:1000800000F043EF00F082A04EEF00F048EF00F0E8
:10009000810E006E00C081FF20EF00F0FF0E016EA8
:0800A00001C081FF20EF00F018
:020000040030CA
:0400000020083E1E78
:020005008181F7
:060008000F800FA00F4065
:00000001FF
