:0400000010EF00F00D
:10002000C26A0F0EC16E070EB46EFF0ED36E926AD7
:10003000806A936A816A006A016A0BD0F9263F0CD4
:10004000060C5B0C4F0C660C6D0C7D0C070C7F0CCA
:100050006F0C006A016A00501EEC00F0816E0150C6
:100060001EEC00F0806E48EC00F0120E00620DD025
:10007000120E016203D0006A016AEDD7120E00620F
:1000800004D0006A012A012AE6D7002A002AE3D711
:10009000850ED76EEE0ED66E950ED56EF2A4FED7F7
:0400A000F2941200C4
:020000040030CA
:0400000020083E1E78
:020005008181F7
:060008000F800FA00F4065
:00000001FF
